:020000040000FA
:020000000029D5
:040002000034003492
:080008008B13A400030EA500F8
:100010000C1812200C1B2020250E8300A40E240E89
:100020008B170900F8308F002F308E000C10200C39
:100030007F39203E9500210C7F39203E9B0008002F
:1000400023182E28831203131F159F111F129F12AE
:100050001E08A0000C139F1423140800831203131E
:100060001F119F111F129F121E08A1000C139F1435
:040070002310080051
:10020000092122212C2152217121362141214A210B
:100210000829831603130514851405158601870123
:10022000880183160317081488140815890183129E
:100230000313870186018801080083120313A001BC
:10024000A101A301831603139F01831203134330FB
:100250009F000C170C17080083120313073092003D
:10026000831603138C14BB3092000800831203130F
:100270009713171397121712971517159710171032
:100280000800831203139D121D129D151D159D1448
:100290001D14080083160313873081008312031393
:1002A0000B11080083120313900190121012101406
:1002B0000C100800831603131812181598168316CD
:1002C0000317871183160313193099009A01080048
:1002D00083120313981718131816831603138C161A
:1002E0000800831203138B170B178B168C10080052
:02400E00D420BC
:02401000FF3F70
:00000001FF
