:020000040000FA
:020000000029D5
:040002000034003492
:080008008B13A300030EA400FA
:100010000B1912200C1B1E20240E8300A30E230E8E
:100020008B170900F83081000B11200C7F39203E1E
:100030009500210C7F39203E9B00080022182C28B7
:10004000831203131F159F111F129F121E08A00079
:100050000C139F1422140800831203131F119F1105
:100060001F129F121E08A1000C139F1422100800DB
:1002000008211F2129214F2133213E214721072980
:10021000831603130514851486018701880183164C
:1002200003170814881489018312031387018601B8
:100230008801080083120313A001A101A201831603
:1002400003139F018312031343309F000C170C17F5
:1002500008008312031307309200831603138C14D3
:10026000BB309200080083120313971317139712E1
:1002700017129715171597101710080083120313FC
:100280009D121D129D151D159D141D140800831629
:10029000031387308100831203130B1108008312AC
:0C02A00003138B170B178B168C10080033
:02400E00D420BC
:02401000FF3F70
:00000001FF
