:020000040000FA
:020000000029D5
:040002000034003492
:080008008B13A500030EA600F6
:100010000C1B22200C1814208C1A3220260E830070
:10002000A50E250E8B170900F8308F002F308E009B
:100030000C10210C7F39203E9500220C7F39203E88
:100040009B00080024182B281F151E08A1000C1364
:100050009F14241408001F111E08A2000C139F14E3
:0A006000241008001A0886000800AA
:100200000B211D2139212F21552142214C2127214C
:100210006F215E210A2983160313051485148601B4
:100220008701880183160317081488148901831233
:1002300003138601870188010800831603139F01B9
:100240000C178312031343309F000C17080083160A
:10025000031357308100831203130B11080083121C
:100260000313901210121014831603130C140C10A5
:10027000080083120313FF30920083160313BB3070
:100280009200080083120313971317139712171283
:100290009715171597101710831203139D121D122F
:1002A0009D151D159D141D140800831203138B1733
:1002B0000B178B16831603138C1608008316031373
:1002C00018131812181583160317871183160313B2
:1002D000193099009A0198168312031308008312AB
:0A02E00003139817181318160800EE
:02400E00D420BC
:02401000FF3F70
:00000001FF
