:020000040000FA
:020000000029D5
:040002000034003492
:080008008B13A300030EA400FA
:100010000B1912200C1B1E20240E8300A30E230E8E
:100020008B170900F83081000B11200CFF39203E9E
:100030009500210CFF39203E9B00080022182A2839
:10004000831203131F159F111E08A0000C139F1489
:1000500022140800831203139F111F111E08A10010
:080060000C139F14221008008C
:1002000008211D2127214D2131213C21452107298C
:1002100083160313051485140515860187018801CB
:100220008316031708148814081589018312031311
:1002300087018601880185010800831603139F0149
:100240008312031343309F000C170C17080083120E
:10025000031307309200831603138C14BB309200F3
:100260000800831203139713171397121712971589
:100270001715971017100800831203139D121D12F3
:100280009D151D159D141D1408008316031387303A
:100290008100831203130B110800831203138B17C1
:0602A0000B178C10080092
:02400E00D420BC
:02401000FF3F70
:00000001FF
