:020000040000FA
:020000000029D5
:040002000034003492
:080008008B13A600030EA700F4
:100010000B1916208C1833208C1A37200C1B1D202E
:10002000270E8300A60E260E8B170900F8308100DC
:100030000B112F2125212A21080025182928831298
:1000400003131F159F111E08AA000C139F142514DB
:100050000800831203139F111F111E08AB000C131D
:100060009F14251008008C100C1A0921080001307B
:10007000290203193F281A08B300A90A08001A0820
:10008000B400A90108000F3982078834EB344C34DE
:1000900049342B3419341834CB3408340B3402343B
:0A00A0003034943460341434163404
:1002000053216B216621832175218D2196219D210A
:10021000082903303202031921290230320203195E
:100220001D2901303202031919292A089900B20A3E
:1002300008002C309900B20A08002B089900B20A75
:1002400008000A309900B20108003308A000330EFC
:10025000A10008003408A200340EA3000800861391
:1002600006138612061224184429A4183D292108D1
:10027000432088008617A414080020084320880023
:1002800006172414A4100800A4184C29220843209F
:1002900088008616A4140800230843208800061648
:1002A0002410A41008008316031305148514860176
:1002B00087018801831603170814881489018312A3
:1002C0000313870186018801850108008316031343
:1002D000803081000800831603139F0183120313EB
:1002E00043309F000C170C170800831603131812D5
:1002F00018159816831603178711831603131930E0
:1003000099009A01080083120313FF3092008316AC
:1003100003138C14143092000800831203139817EF
:1003200018131816831603138C1608008312031370
:100330008B170B178B168C100800A001A101A201CE
:10034000A301A401A501A601A701A801A901AA0171
:10035000AB01AC01AD01AE01AF01B001B101B20121
:0A036000B401B30183120313080077
:02400E00D420BC
:02401000FF3F70
:00000001FF
